{
  "transactions": [
    {
      "hash": "0x2b5e96e8b6fe126915d6e65f1919a0448a1b7c3b8a0e833d33fcb2d3e714353e",
      "transactionType": "CALL",
      "contractName": null,
      "contractAddress": "0x779877a7b0d9e8603169ddbd7836e478b4624789",
      "function": "transferAndCall(address,uint256,bytes)",
      "arguments": [
        "0x9DdfaCa8183c41ad55329BdeeD9F6A8d53168B1B",
        "3000000000000000000",
        "0x4639a8a1fa2d9e1f377dc93c8f4e86624de783f5051eb86983a39bb063ceb359"
      ],
      "transaction": {
        "from": "0x60d232f4a4f465175edae1626da3898166ab1307",
        "to": "0x779877a7b0d9e8603169ddbd7836e478b4624789",
        "gas": "0x1c1ff",
        "value": "0x0",
        "input": "0x4000aea00000000000000000000000009ddfaca8183c41ad55329bdeed9f6a8d53168b1b00000000000000000000000000000000000000000000000029a2241af62c0000000000000000000000000000000000000000000000000000000000000000006000000000000000000000000000000000000000000000000000000000000000204639a8a1fa2d9e1f377dc93c8f4e86624de783f5051eb86983a39bb063ceb359",
        "nonce": "0x5",
        "chainId": "0xaa36a7"
      },
      "additionalContracts": [],
      "isFixedGasLimit": false
    }
  ],
  "receipts": [
    {
      "status": "0x1",
      "cumulativeGasUsed": "0xa76b7d",
      "logs": [
        {
          "address": "0x779877a7b0d9e8603169ddbd7836e478b4624789",
          "topics": [
            "0xddf252ad1be2c89b69c2b068fc378daa952ba7f163c4a11628f55a4df523b3ef",
            "0x00000000000000000000000060d232f4a4f465175edae1626da3898166ab1307",
            "0x0000000000000000000000009ddfaca8183c41ad55329bdeed9f6a8d53168b1b"
          ],
          "data": "0x00000000000000000000000000000000000000000000000029a2241af62c0000",
          "blockHash": "0xa7d34362ab8399b19162ab9561702d18f5022b59780c804130039383d0789126",
          "blockNumber": "0x621f70",
          "transactionHash": "0x2b5e96e8b6fe126915d6e65f1919a0448a1b7c3b8a0e833d33fcb2d3e714353e",
          "transactionIndex": "0x30",
          "logIndex": "0xdf",
          "removed": false
        },
        {
          "address": "0x779877a7b0d9e8603169ddbd7836e478b4624789",
          "topics": [
            "0xe19260aff97b920c7df27010903aeb9c8d2be5d310a2c67824cf3f15396e4c16",
            "0x00000000000000000000000060d232f4a4f465175edae1626da3898166ab1307",
            "0x0000000000000000000000009ddfaca8183c41ad55329bdeed9f6a8d53168b1b"
          ],
          "data": "0x00000000000000000000000000000000000000000000000029a2241af62c0000000000000000000000000000000000000000000000000000000000000000004000000000000000000000000000000000000000000000000000000000000000204639a8a1fa2d9e1f377dc93c8f4e86624de783f5051eb86983a39bb063ceb359",
          "blockHash": "0xa7d34362ab8399b19162ab9561702d18f5022b59780c804130039383d0789126",
          "blockNumber": "0x621f70",
          "transactionHash": "0x2b5e96e8b6fe126915d6e65f1919a0448a1b7c3b8a0e833d33fcb2d3e714353e",
          "transactionIndex": "0x30",
          "logIndex": "0xe0",
          "removed": false
        },
        {
          "address": "0x9ddfaca8183c41ad55329bdeed9f6a8d53168b1b",
          "topics": [
            "0x1ced9348ff549fceab2ac57cd3a9de38edaaab274b725ee82c23e8fc8c4eec7a",
            "0x4639a8a1fa2d9e1f377dc93c8f4e86624de783f5051eb86983a39bb063ceb359"
          ],
          "data": "0x000000000000000000000000000000000000000000000000000000000000000000000000000000000000000000000000000000000000000029a2241af62c0000",
          "blockHash": "0xa7d34362ab8399b19162ab9561702d18f5022b59780c804130039383d0789126",
          "blockNumber": "0x621f70",
          "transactionHash": "0x2b5e96e8b6fe126915d6e65f1919a0448a1b7c3b8a0e833d33fcb2d3e714353e",
          "transactionIndex": "0x30",
          "logIndex": "0xe1",
          "removed": false
        }
      ],
      "logsBloom": "0x00000004000000000000000000000000000000000020000000000000020000000000000000000000000000000000000000000000000000000000000000000000000000000000000002000008000000000200000000000000000020000020000008000000000000000000000000000000000000000000000000000010000040000000000000000000000000010000800000000020000000000000000000000000000000000000000000000000010000000000000000001000000004000000000000000002000000000000080000000000000000000000000100000000000800000010000000000000800000000000000000000000000000000000000000000001",
      "type": "0x2",
      "transactionHash": "0x2b5e96e8b6fe126915d6e65f1919a0448a1b7c3b8a0e833d33fcb2d3e714353e",
      "transactionIndex": "0x30",
      "blockHash": "0xa7d34362ab8399b19162ab9561702d18f5022b59780c804130039383d0789126",
      "blockNumber": "0x621f70",
      "gasUsed": "0x133b1",
      "effectiveGasPrice": "0x91329165",
      "from": "0x60d232f4a4f465175edae1626da3898166ab1307",
      "to": "0x779877a7b0d9e8603169ddbd7836e478b4624789",
      "contractAddress": null
    }
  ],
  "libraries": [],
  "pending": [],
  "returns": {},
  "timestamp": 1722709542,
  "chain": 11155111,
  "commit": "42e17dc"
}